:040000006BEF00F0B2
:10000800FACFA7F0FBCFA8F0E9CFA9F025EF06F0CB
:10001800D8CF2DF0E8CF2EF0E0CF2FF0FACF30F088
:10002800FBCF31F0E9CF32F0EACF33F0E1CF34F053
:10003800E2CF35F0D9CF36F0DACF37F0F3CF38F05A
:10004800F4CF39F0F6CF3AF0F7CF3BF0F8CF3CF0E9
:10005800F5CF3DF0F2A418D0F29402C0D7FF03C048
:10006800D6FF000E3E6E010E3E6401D00DD03E500C
:10007800060D1D0EF324296E000EF4202A6ED7EC0F
:1000880007F03E2AF0D700D03DC0F5FF3CC0F8FF8E
:100098003BC0F7FF3AC0F6FF39C0F4FF38C0F3FFA2
:1000A80037C0DAFF36C0D9FF35C0E2FF34C0E1FF00
:1000B80033C0EAFF32C0E9FF31C0FBFF30C0FAFFAE
:1000C8002FC0E0FF2EC0E8FF2DC0D8FF1000B4EF0E
:1000D80008F01BB0A1D07DD19FD05E0E075C010E49
:1000E8000858D8B03BD0000E46EC09F0074A082A59
:1000F800000E0E6E000E0D6E000E6FEC08F0ED0E89
:10010800195C010E1A58D8A078D1085004E1830E62
:10011800075CD8A00FD0000E32EC09F0000E0001E9
:10012800B56F000ED1EC08F0000E086E000E076ED9
:10013800020E50D0000E32EC09F0000E086E000ED0
:10014800076E000E0001B56F000ED1EC08F0040E2A
:10015800046E000E5AEC09F027D14FD1000E32EC94
:1001680009F0000E0001B56F000ED1EC08F0000E8A
:10017800086E000E076E070E2DD03FD1074A082AD9
:10018800000E6FEC08F0ED0E195C010E1A58D8A09D
:1001980034D1085004E1830E075CD8A02ED1000E9C
:1001A80032EC09F0000E0001B56F000ED1EC08F03A
:1001B800000E086E000E076E040E0CD01ED1000E45
:1001C800106E000E0F6E000E0001B56F000ED1EC20
:1001D80008F0C9D0046E11D15E0E075C010E0858F4
:1001E800D8B00DD0000E46EC09F0074A082A000ED8
:1001F8000E6E000E0D6E000E6FEC08F0D5D0070ED7
:10020800046E000E32EC09F0000E0001B56F000E0E
:10021800D1EC08F0D9D0F1D00450000AD8B45DD799
:10022800030AD8B4CCD7070AD8B4A8D70C0AD8B4CC
:10023800D3D7E3D0CED00F4A102A105004E1FA0EDB
:100248000F5CD8A0DAD0000E106E000E0F6E000EF4
:100258000E6E000E0D6E87D0D0D05E0E075C010EBC
:100268000858D8B041D0000E5AEC09F0074A082ABD
:10027800000E0E6E000E0D6E000E6FEC08F0ED0E07
:10028800195C010E1A58D8A0B8D0085004E1830EA2
:10029800075CD8A012D0000E32EC09F0000E086EF0
:1002A800000E076E000E0E6E000E0D6E000E0001A1
:1002B800B56F000ED1EC08F063D0000E32EC09F0F7
:1002C800000E086E000E076E000E0001B56F000EDE
:1002D800D1EC08F0000E086E000E076E060E046ED4
:1002E800000E46EC09F089D0000E32EC09F0000E41
:1002F8000001B56F000ED1EC08F0000E086E000E7C
:10030800076E080E67D779D0000E0E6E000E0D6EC0
:10031800000E6FEC08F0ED0E195C010E1A58D8A00B
:100328006CD0000E32EC09F0000E0001B56F000E23
:10033800D1EC08F0030E4ED760D0000E0E6E000E02
:100348000D6E0F4A102ADC0E0F5C050E1058D8A04F
:1003580054D0000E106E000E0F6E000E0001B56F27
:10036800000ED1EC08F0010E35D747D0000E086E0C
:10037800000E076E000E0001B56F000ED1EC08F0FC
:10038800000E28D75E0E075C010E0858D8B011D0B1
:10039800000E5AEC09F0074A082A000E0E6E000EED
:1003A8000D6E000E6FEC08F0000E0E6E000E0D6E56
:1003B80024D0080E046E000E32EC09F0000E000185
:1003C800B56F000ED1EC08F0000E086E000E076E37
:1003D80014D00450010AD8B440D7030AD8B42BD794
:1003E800010AD8B4AAD7070AD8B4C0D7020AD8B421
:1003F8008BD7010AD8B4C6D700D01BB2A1D07DD103
:100408009FD05E0E095C010E0A58D8B03BD0010E91
:1004180046EC09F0094A0A2A000E0E6E000E0D6E0F
:10042800010E6FEC08F0ED0E175C010E1858D8A0FD
:1004380078D10A5004E1830E095CD8A00FD0010ED0
:1004480032EC09F0000E0001B56F010ED1EC08F096
:10045800000E0A6E000E096E020E50D0010E32EC2C
:1004680009F0000E0A6E000E096E000E0001B56F4D
:10047800010ED1EC08F0040E056E010E5AEC09F0DD
:1004880027D14FD1010E32EC09F0000E0001B56FF3
:10049800010ED1EC08F0000E0A6E000E096E070E70
:1004A8002DD03FD1094A0A2A010E6FEC08F0ED0E53
:1004B800175C010E1858D8A034D10A5004E1830EF5
:1004C800095CD8A02ED1010E32EC09F0000E000113
:1004D800B56F010ED1EC08F0000E0A6E000E096E21
:1004E800040E0CD01ED1000E126E000E116E000EFE
:1004F8000001B56F010ED1EC08F0C9D0056E11D11D
:100508005E0E095C010E0A58D8B00DD0010E46ECFB
:1005180009F0094A0A2A000E0E6E000E0D6E010E31
:100528006FEC08F0D5D0070E056E010E32EC09F01D
:10053800000E0001B56F010ED1EC08F0D9D0F1D052
:100548000550000AD8B45DD7030AD8B4CCD7070A37
:10055800D8B4A8D70C0AD8B4D3D7E3D0CED0114A90
:10056800122A125004E1FA0E115CD8A0DAD0000E5B
:10057800126E000E116E000E0E6E000E0D6E87D0FC
:10058800D0D05E0E095C010E0A58D8B041D0010ED9
:100598005AEC09F0094A0A2A000E0E6E000E0D6E7A
:1005A800010E6FEC08F0ED0E175C010E1858D8A07C
:1005B800B8D00A5004E1830E095CD8A012D0010E0D
:1005C80032EC09F0000E0A6E000E096E000E0E6E77
:1005D800000E0D6E000E0001B56F010ED1EC08F093
:1005E80063D0010E32EC09F0000E0A6E000E096E9F
:1005F800000E0001B56F010ED1EC08F0000E0A6E76
:10060800000E096E060E056E010E46EC09F089D043
:10061800010E32EC09F0000E0001B56F010ED1ECAD
:1006280008F0000E0A6E000E096E080E67D779D022
:10063800000E0E6E000E0D6E010E6FEC08F0ED0E42
:10064800175C010E1858D8A06CD0010E32EC09F0D6
:10065800000E0001B56F010ED1EC08F0030E4ED765
:1006680060D0000E0E6E000E0D6E114A122ADC0EBE
:10067800115C050E1258D8A054D0000E126E000E50
:10068800116E000E0001B56F010ED1EC08F0010EDD
:1006980035D747D0000E0A6E000E096E000E000115
:1006A800B56F010ED1EC08F0000E28D75E0E095C7C
:1006B800010E0A58D8B011D0010E5AEC09F0094AB7
:1006C8000A2A000E0E6E000E0D6E010E6FEC08F079
:1006D800000E0E6E000E0D6E24D0080E056E010E73
:1006E80032EC09F0000E0001B56F010ED1EC08F0F4
:1006F800000E0A6E000E096E14D00550010AD8B417
:1007080040D7030AD8B42BD7010AD8B4AAD7070A06
:10071800D8B4C0D7020AD8B48BD7010AD8B4C6D780
:1007280000D0030E0418D8A408D0030E0518D8B4B6
:10073800120007500810D8A4120095EC08F0120017
:1007480012004504D8A45BD0EDEC08F00150080D68
:10075800020EF326000EF422600EF324D96E000E6A
:10076800F420DA6E0001B5C0DEFF0001B6C0DDFF7F
:10077800000E0001BD6F000EBC6F000E0001BE6FC1
:10078800040E0001BE6501D016D00001BE51080D4F
:10079800020EF326000EF422600EF324D96E000E2A
:1007A800F420DA6EDE500001BC27DD500001BD23C5
:1007B8000001BE2BE5D7BCC0B5F0BDC0B6F0000E39
:1007C8000001B86F050EB76F1FEC07F0B5C015F044
:1007D800B6C016F01C50D8A40CD0012A040E01642F
:1007E80002D0000E016E010E456E010E92EC09F06A
:1007F800BBD0020E456E020E92EC09F0B5D0020E87
:100808004518D8A453D01CA247D0EDEC08F00150ED
:10081800080D040EF326000EF422600EF324D96EA0
:10082800000EF420DA6E0001B5C0DEFF0001B6C08C
:10083800DDFF000E0001BD6F000EBC6F000E000151
:10084800BE6F040E0001BE6501D016D00001BE5176
:10085800080D040EF326000EF422600EF324D96E60
:10086800000EF420DA6EDE500001BC27DD500001D6
:10087800BD230001BE2BE5D7BCC0B5F0BDC0B6F0A6
:10088800000E0001B86F050EB76F1FEC07F0B5C07A
:1008980017F0B6C018F004D0000E186E000E176ED0
:1008A800030E456E030E92EC09F05ED0030E451858
:1008B800D8A45AD01CA047D0EDEC08F00150080D80
:1008C800060EF326000EF422600EF324D96E000EF5
:1008D800F420DA6E0001B5C0DEFF0001B6C0DDFF0E
:1008E800000E0001BD6F000EBC6F000E0001BE6F50
:1008F800040E0001BE6501D016D00001BE51080DDE
:10090800060EF326000EF422600EF324D96E000EB4
:10091800F420DA6EDE500001BC27DD500001BD2353
:100928000001BE2BE5D7BCC0B5F0BDC0B6F0000EC7
:100938000001B86F050EB76F1FEC07F0B5C019F0CE
:10094800B6C01AF005D0000E1A6E000E196E00D04F
:10095800012A040E016402D0000E016E010E456EDC
:10096800010E92EC09F000D01CB205D0000E186EF2
:10097800000E176E00D01CB01200000E1A6E000E8A
:10098800196E1200120060AE120020EE04F03F5003
:10099800D9264050DA2262A602D0010E01D0000EFC
:1009A800DF6E20EE04F03F50D9264050DA22DF50A7
:1009B800D8A421D062CF41F0050E426ED8904132C2
:1009C800422EFCD7415061CF43F0446AD890433659
:1009D8004436D89043364436D8904336443643128A
:1009E800000E44123FC0D9FF40C0DAFF43C0DEFF0B
:1009F80044C0DDFF00D020EE05F03F50D92640501E
:100A0800DA2265AC02D0010E01D0000EDF6E20EEB6
:100A180006F03F50D9264050DA2265500F0BDF6EA2
:100A280020EE07F03F50D9264050DA2266CFDFFF8C
:100A380020EE08F03F50D9264050DA2267CFDFFF7A
:100A480020EE09F03F50D9264050DA2268CFDFFF68
:100A580020EE0AF03F50D9264050DA2269CFDFFF56
:100A680020EE0BF03F50D9264050DA226ACFDFFF44
:100A780020EE0CF03F50D9264050DA226BCFDFFF32
:100A880020EE0DF03F50D9264050DA226CCFDFFF20
:100A980020EE0EF03F50D9264050DA226DCFDFFF0E
:100AA800609E12001200020ED56ED59C400E000109
:100AB800D46F420ED56F0F0ED66F000ED76FCEC013
:100AC800B5F0CFC0B6F00001B76BB86BD4C0B9F0C1
:100AD800D5C0BAF0D6C0BBF0D7C0BCF060EC07F008
:100AE800B5C0C1F0B6C0C2F0B7C0C3F0B8C0C4F05A
:100AF800E80E0001C56F030EC66F000EC76F000E2B
:100B0800C86FC2EC05F0C1C0D4F0C2C0D5F0C3C0F4
:100B1800D6F0C4C0D7F0D4C0D0F0D5C0D1F0D6C07C
:100B2800D2F0D7C0D3F00001D01FD11FD21FD31FDE
:100B3800D02B000ED123D223D323000E0001D025C1
:100B48000001D46F000E0001D1210001D56F010E04
:100B58000001D2210001D66F000E0001D32100014F
:100B6800D76FD5C002F0D4C003F0D58E02C0D7FF2E
:100B780003C0D6FFF294F28AF1941200000E00012D
:100B8800C96F000ECA6F000ECB6F000ECC6F00014C
:100B9800C5510001C6110001C7110001C811D8B420
:100BA80047D0010E0001CD6F09D00001D890C5379C
:100BB800C637C737C8370001CD2B00D00001C8BFE2
:100BC80002D0F3D700D00001D890C937CA37CB3745
:100BD800CC370001C5510001C15D0001C6510001BB
:100BE800C2590001C7510001C3590001C851000191
:100BF800C459D8A013D00001C5510001C15F00013C
:100C0800C6510001C25B0001C7510001C35B00016E
:100C1800C8510001C45B0001C98100D00001D8900F
:100C2800C833C733C633C5330001CD2FCCD700D066
:100C3800C9C0C1F0CAC0C2F0CBC0C3F0CCC0C4F0B8
:100C48001200EACFAAF0E1CFABF0E2CFACF0D9CFF7
:100C5800ADF0DACFAEF0F3CFAFF0F4CFB0F0F6CF1F
:100C6800B1F0F7CFB2F0F8CFB3F0F5CFB4F077BC6E
:100C7800779C77A02CD07790880E3F6E000E406E40
:100C8800C7EC04F0100E0001881921E10001890564
:100C9800D8A41DD000018C51D8A419D0080E000189
:100CA8008E19D8A414D0000194A103D0000194B5E2
:100CB80002D01B8202D01B9200D0000194A303D063
:100CC800000194B702D01B8002D01B9000D0B4C0A2
:100CD800F5FFB3C0F8FFB2C0F7FFB1C0F6FFB0C070
:100CE800F4FFAFC0F3FFAEC0DAFFADC0D9FFACC0B0
:100CF800E2FFABC0E1FFAAC0EAFFA9C0E9FFA8C0B4
:100D0800FBFFA7C0FAFF1100939A00D0939400D07C
:100D1800938600D0800E6F6E00D0800E6E18D8A417
:100D2800FCD7000E726E05D0130E07D002D00F0E3E
:100D380004D0030E02D00AD0010E0E01436F900EAC
:100D48000E01446F020E0E01456F00D0000E0E0119
:100D5800FA6F000E0E01FB6F0E01F869E00E0E012E
:100D6800F96F010E0E01466F000E0E01476F000E5F
:100D78000E01E26F000E0E01E36F220E0E01E06F0E
:100D8800000E0E01E16F030E0F01206F000E6F6E53
:100D980000D06E50D8A4FDD7200E606E000E776E7E
:100DA8007680788012000001B76F010E0001B765E8
:100DB80001D0FFD7F29EF29C0001B751060D020E3A
:100DC800F326000EF4221D0EF324D96E000EF42033
:100DD800DA6EB5C0DEFFB6C0DDFF0001B751060D03
:100DE800040EF326000EF4221D0EF324D96E000E15
:100DF800F420DA6EB5C0DEFFB6C0DDFF0001B751E2
:100E0800060D010EF326000EF4221D0EF324D96EF2
:100E1800000EF420DA6E000EDF6E0001B751060DE9
:100E28001D0EF324D96E000EF420DA6E010EDF6E6B
:100E3800F28EF28C1200000E0001BB6F000EBA6F2A
:100E48000001B7510001B811D8B431D0010E00012A
:100E5800B96F07D00001D890B737B8370001B92B60
:100E680000D00001B8BF02D0F5D700D00001D8905B
:100E7800BA37BB370001B7510001B55D0001B85161
:100E88000001B659D8A00BD00001B7510001B55FD9
:100E98000001B8510001B65B0001BA8100D0000121
:100EA800D890B833B7330001B92FE0D700D0BAC013
:100EB800B5F0BBC0B6F01200000E0001BD6F000E09
:100EC800BE6F000EBF6F000EC06F00D00001B5A14D
:100ED80011D00001B9510001BD270001BA5100012C
:100EE800BE230001BB510001BF230001BC5100011A
:100EF800C02300D00001D890B937BA37BB37BC3708
:100F08000001D890B833B733B633B5330001B551C3
:100F18000001B6110001B7110001B811D8A4D6D745
:100F2800BDC0B5F0BEC0B6F0BFC0B7F0C0C0B8F025
:100F38001200010EAEEC09F0000E0001B56F000EB4
:100F480006EC09F0000E0001B56F010E06EC09F081
:100F5800000E0001B56F000ED1EC08F0000E000184
:100F6800B56F010ED1EC08F0000E086E000E076E8A
:100F7800000E0A6E000E096E000E0E6E000E0D6E4B
:100F8800779C768C788C200E6F6E00D06E38E832A5
:100F9800070BE806D8A4FAD7D39E0300F00E00D0BA
:100FA800E82EFDD7120020EE02F02950D9262A504B
:100FB800DA22DE50DE10D8B4120020EE02F02950FA
:100FC800D9262A50DA22DE06000EDD5ADE50DE105F
:100FD800D8A4120020EE01F02950D9262A50DA228E
:100FE800010EDF6E29C0D9FF2AC0DAFFDE04D8A4BB
:100FF800120020EE04F02950D9262A50DA2210EEE9
:1010080002F02950E1262A50E222DECFE6FFDDCFAA
:10101800E5FF12001200D08EF28EF28CBAEC09F0C5
:101028006EEC09F088EC06F081EC09F0BDEC09F0F3
:10103800000E0001CF6F010ECE6F57EC05F0000EC9
:10104800AEEC09F0010E0001B56F000E06EC09F0D8
:10105800010E0001B56F010E06EC09F0000E00014B
:10106800B66F0A0EB56F010ED7EC06F0000E000140
:10107800B66F010EB56F000ED7EC06F01200000136
:10108800B66F010E0001B66502D0000E1200000115
:10109800B651060D010EF326000EF4221D0EF324A0
:1010A800D96E000EF420DA6EDE04D8A411D0000147
:1010B800B651060D010EF326000EF4221D0EF32480
:1010C800D96E000EF420DA6E000EDF6E010E1200EB
:1010D800000E120012000001B76F0001B7510001A5
:1010E800D8A40DD00B2A310E0B641200000E0B6E23
:1010F800010E0001B56F000ED1EC08F012000001DE
:10110800B705D8A412000C2A310E0C641200000E88
:101118000C6E010E0001B56F010ED1EC08F0120043
:10112800120046501B18D8B415D0AA0E466E0D4AA8
:101138000E2ADD0E0D5C050E0E58D8A01200000E0A
:101148000E6E000E0D6E1BC046F09DEC07F00FEC06
:1011580008F012009DEC07F00FEC08F012001200E6
:1011680000EE60F0470EEE6AE806FDE100EE01F0E1
:10117800280EEE6AE806FDE1780EF66E130EF76E9D
:10118800000EF86E0900F5CF45F00900F5CF46F0DE
:10119800000EF86E0001A2EF09F00001B66F000121
:1011A800B6510001D8A408D00001B505D8A402D0D2
:1011B8001C8012001C9012000001B605D8A4120071
:1011C8000001B505D8A402D01C8212001C9212009E
:1011D8001200000E0001BB6F000EBA6FC3CFB7F04C
:1011E800E00E0001B717C4500001B86F0001B751F5
:1011F8000001BA6FB8C0BBF0BAC0B5F0BBC0B6F05A
:10120800120012000001B66F0001B5510001D8B4F8
:1012180008D00001B605D8A402D08A8C12008A8EA4
:1012280012000001B605D8A402D08A9C12008A9E3A
:1012380012001200000E43EC08F00009D8A4A5EC37
:1012480003F0010E43EC08F00009D8B41200065070
:10125800D8A412006DEC00F0120012000001B56F66
:101268000001B5510001D8A404D08B9200D08B9016
:1012780012000001B505D8A412008B9E00D08B98EF
:10128800120012000001B56F0001B5510001D8A489
:1012980004D08B8200D08B9012000001B505D8A431
:1012A80012008B9E00D08B88120012000001B56FCF
:1012B8000001B5510001D8A404D08B9200D08B80D6
:1012C80012000001B505D8A412008B8E00D08B98AF
:1012D80012001200939C00D0939E92680F0E0F018B
:1012E8005D6F000EC16EAA0EC06E000EC46E000EB9
:1012F800C36E010E92EC09F012008B9200D08B9015
:1013080000D08B9E00D08B9800D0949200D09490FF
:1013180000D0949E00D09498120012000001B66F7D
:10132800B6C0B5F00001B547B547C2500001B519C0
:10133800830BB519C26EC280C28212000FEC08F08E
:101348009DEC07F00FEC08F000D01EEC09F0FDD77B
:101358006BEF00F00001B56F0001B5510001D8A492
:1013680002D08A9A12008A8A120012009B8C1200FC
:0413780001AA1200B4
:020000040020DA
:08000000FFFFFFFFFFFFFFFF00
:020000040030CA
:0E00000011031920FF8990FF0FC00FE00F4081
:00000001FF
