:040000006BEF00F0B2
:10000800FACFA7F0FBCFA8F0E9CFA9F0BFEF05F032
:10001800D8CF2AF0E8CF2BF0E0CF2CF0FACF2DF094
:10002800FBCF2EF0E9CF2FF0EACF30F0E1CF31F05F
:10003800E2CF32F0D9CF33F0DACF34F0F3CF35F066
:10004800F4CF36F0F6CF37F0F7CF38F0F8CF39F0F5
:10005800F5CF3AF0F2A418D0F29402C0D7FF03C04B
:10006800D6FF000E3B6E010E3B6401D00DD03B5015
:10007800060D1A0EF324266E000EF420276E3CECB3
:1000880007F03B2AF0D700D03AC0F5FF39C0F8FF97
:1000980038C0F7FF37C0F6FF36C0F4FF35C0F3FFAE
:1000A80034C0DAFF33C0D9FF32C0E2FF31C0E1FF0C
:1000B80030C0EAFF2FC0E9FF2EC0FBFF2DC0FAFFBA
:1000C8002CC0E0FF2BC0E8FF2AC0D8FF100021EFAA
:1000D80008F019B08CD057D18AD0DA0E175C030E0D
:1000E8001858D8A06AD1000E83EC08F0000E086EEC
:1000F800000E076E000E0C6E000E0B6E000E086EE2
:10010800000E076E070E5ED058D1010E5BD05E0E52
:10011800075C010E0858D8B032D0000E97EC08F0F2
:10012800074A082A000E0C6E000E0B6E085004E1F8
:10013800330E075CD8A041D1DA0E175C030E1858AD
:10014800D8A03BD1085004E1790E075CD8A009D0AB
:10015800000E83EC08F0000E086E000E076E020E0B
:1001680031D0000E83EC08F0000E086E000E076E0A
:10017800040E046E000EABEC08F0F6D01ED1000E93
:1001880083EC08F0000E086E000E076E080E1AD0F9
:1001980014D1074A082A085004E1330E075CD8A096
:1001A8000CD1DA0E175C030E1858D8A006D1000E31
:1001B80083EC08F0000E086E000E076E040E02D0E5
:1001C800FCD0B7D0046EF9D05E0E075C010E08585B
:1001D800D8B006D0000E97EC08F0074A082AC4D019
:1001E800080E046E000E83EC08F0C8D0E6D0045068
:1001F800000AD8B48CD7010AD8B46FD7020AD8B489
:1002080098D0070AD8B4C5D7020AD8B47ED70F0A3F
:10021800D8B4DAD7D2D0B7D00D4A0E2A000E0E6E57
:10022800000E0D6E000E0C6E000E0B6E6ED7C5D054
:10023800DA0E175C030E1858D8A0BFD0000E83EC56
:1002480008F0000E086E000E076E000E0C6E000E11
:100258000B6E000E086E000E076E060EB3D7ADD0FB
:1002680072D05E0E075C010E0858D8B034D0000E6C
:10027800ABEC08F0074A082A000E0C6E000E0B6E55
:10028800085004E1330E075CD8A097D0DA0E175C4B
:10029800030E1858D8A091D0085004E1790E075CD5
:1002A800D8A00CD0000E83EC08F0000E086E000EEB
:1002B800076E000E0C6E000E0B6E45D0000E83EC20
:1002C80008F0000E086E000E076E050E046E000E94
:1002D80097EC08F072D0000E83EC08F0000E086E60
:1002E800000E076E090E6ED768D0074A082A085014
:1002F80004E1330E075CD8A060D0DA0E175C030E59
:100308001858D8A05AD0000E83EC08F0000E086EDA
:10031800000E076E030E56D750D0000E0C6E000E5E
:100328000B6E0D4A0E2ADC0E0D5C050E0E58D8A079
:1003380044D0000E0E6E000E0D6EE7D63ED0000EB5
:10034800086E000E076E000E3DD75E0E075C010EAC
:100358000858D8B00ED0000EABEC08F0074A082AAF
:10036800000E0C6E000E0B6E000E0C6E000E0B6E67
:1003780024D0090E046E000E83EC08F0000E086EFF
:10038800000E076E1AD00450000AD8B451D7010ADB
:10039800D8B467D7030AD8B43FD7010AD8B4BDD7B1
:1003A800070AD8B4CCD7010AD8B49FD7020AD8B460
:1003B800CAD70F0AD8B4C9D700D019B290D05DD126
:1003C8008ED0DA0E155C030E1658D8A070D1010E27
:1003D80083EC08F0000E0A6E000E096E000E0C6E1B
:1003E800000E0B6E000E0A6E000E096E070E5ED030
:1003F8005ED120D15CD15E0E095C010E0A58D8B0DE
:1004080032D0010E97EC08F0094A0A2A000E0C6E49
:10041800000E0B6E0A5004E1330E095CD8A047D1D8
:10042800DA0E155C030E1658D8A041D10A5004E123
:10043800790E095CD8A009D0010E83EC08F0000EF3
:100448000A6E000E096E020E31D0010E83EC08F020
:10045800000E0A6E000E096E040E056E010EABEC5E
:1004680008F0FCD024D1010E83EC08F0000E0A6ECF
:10047800000E096E080E1AD01AD1094A0A2A0A5023
:1004880004E1330E095CD8A012D1DA0E155C030E14
:100498001658D8A00CD1010E83EC08F0000E0A6E95
:1004A800000E096E040E02D002D1C0D0056EFFD036
:1004B8005E0E095C010E0A58D8B00AD0010E97ECFE
:1004C80008F0094A0A2A000E0C6E000E0B6EC6D000
:1004D800080E056E010E83EC08F0CAD0E8D005506E
:1004E800000AD8B488D7010AD8B46BD7020AD8B49E
:1004F8009DD0070AD8B4C1D7020AD8B49BD00F0A36
:10050800D8B4D6D7D4D0B9D00F4A102A000E106E5E
:10051800000E0F6E000E0C6E000E0B6E8BD0C7D047
:10052800DA0E155C030E1658D8A0C1D0010E83EC64
:1005380008F0000E0A6E000E096E000E0C6E000E1A
:100548000B6E000E0A6E000E096E060EAFD7AFD006
:1005580078D0ADD05E0E095C010E0A58D8B038D0FC
:10056800010EABEC08F0094A0A2A000E0C6E000EC8
:100578000B6E0A5004E1330E095CD8A098D0DA0E4D
:10058800155C030E1658D8A092D00A5004E1790ED3
:10059800095CD8A00CD0010E83EC08F0000E0A6E9E
:1005A800000E096E000E0C6E000E0B6E4AD0010E86
:1005B80083EC08F0000E0A6E000E096E000E0A6E3B
:1005C800000E096E050E056E010E97EC08F06FD04F
:1005D800010E83EC08F0000E0A6E000E096E090E7B
:1005E80065D765D0094A0A2A0A5004E1330E095C26
:1005F800D8A05DD0DA0E155C030E1658D8A057D0D7
:10060800010E83EC08F0000E0A6E000E096E030E50
:100618004DD74DD0000E0C6E000E0B6E0F4A102AEF
:10062800DC0E0F5C050E1058D8A041D0000E106EDD
:10063800000E0F6E010E3AD73AD0000E0A6E000E69
:10064800096E000E33D75E0E095C010E0A58D8B049
:100658000AD0010EABEC08F0094A0A2A000E0C6E0B
:10066800000E0B6E24D0090E056E010E83EC08F007
:10067800000E0A6E000E096E1AD00550000AD8B492
:100688004FD7010AD8B466D7030AD8B43DD7010AB0
:10069800D8B4C0D7070AD8B4D0D7010AD8B4A2D7DB
:1006A800020AD8B4CED70F0AD8B4CDD700D0030EDB
:1006B8000418D8A408D0030E0518D8B4120007509F
:1006C8000810D8A4120002EC08F01200120042042C
:1006D800D8A44CD03EEC08F00150080D020EF326C9
:1006E800000EF422600EF324D96E000EF420DA6EA8
:1006F8000001B5C0DEFF0001B6C0DDFF000E00013D
:10070800BD6F000EBC6F000E0001BE6F040E00012D
:10071800BE6501D016D00001BE51080D020EF326A9
:10072800000EF422600EF324D96E000EF420DA6E67
:10073800DE500001BC27DD500001BD230001BE2BA7
:10074800E5D7BCC0B5F0BDC0B6F0000E0001B86F6B
:10075800050EB76FBEEC06F0B5C013F0B6C014F0C6
:10076800020E426E020EE3EC08F01200020E42186E
:10077800D8A44CD03EEC08F00150080D040EF32626
:10078800000EF422600EF324D96E000EF420DA6E07
:100798000001B5C0DEFF0001B6C0DDFF000E00019C
:1007A800BD6F000EBC6F000E0001BE6F040E00018D
:1007B800BE6501D016D00001BE51080D040EF32607
:1007C800000EF422600EF324D96E000EF420DA6EC7
:1007D800DE500001BC27DD500001BD230001BE2B07
:1007E800E5D7BCC0B5F0BDC0B6F0000E0001B86FCB
:1007F800050EB76FBEEC06F0B5C015F0B6C016F022
:10080800030E426E030EE3EC08F01200030E4218CA
:10081800D8A412003EEC08F00150080D060EF3268D
:10082800000EF422600EF324D96E000EF420DA6E66
:100838000001B5C0DEFF0001B6C0DDFF000E0001FB
:10084800BD6F000EBC6F000E0001BE6F040E0001EC
:10085800BE6501D016D00001BE51080D060EF32664
:10086800000EF422600EF324D96E000EF420DA6E26
:10087800DE500001BC27DD500001BD230001BE2B66
:10088800E5D7BCC0B5F0BDC0B6F0000E0001B86F2A
:10089800050EB76FBEEC06F0B5C017F0B6C018F07D
:1008A800012A040E016402D0000E016E010E426E90
:1008B800010EE3EC08F01200120060AE120020EE08
:1008C80004F03C50D9263D50DA2262A602D0010E2F
:1008D80001D0000EDF6E20EE04F03C50D9263D50CA
:1008E800DA22DF50D8A421D062CF3EF0050E3F6E49
:1008F800D8903E323F2EFCD73E5061CF40F0416A3F
:10090800D89040364136D89040364136D890403657
:1009180041364012000E41123CC0D9FF3DC0DAFFFB
:1009280040C0DEFF41C0DDFF00D020EE05F03C50A6
:10093800D9263D50DA2265AC02D0010E01D0000E56
:10094800DF6E20EE06F03C50D9263D50DA22655085
:100958000F0BDF6E20EE07F03C50D9263D50DA220F
:1009680066CFDFFF20EE08F03C50D9263D50DA2252
:1009780067CFDFFF20EE09F03C50D9263D50DA2240
:1009880068CFDFFF20EE0AF03C50D9263D50DA222E
:1009980069CFDFFF20EE0BF03C50D9263D50DA221C
:1009A8006ACFDFFF20EE0CF03C50D9263D50DA220A
:1009B8006BCFDFFF20EE0DF03C50D9263D50DA22F8
:1009C8006CCFDFFF20EE0EF03C50D9263D50DA22E6
:1009D8006DCFDFFF609E12001200020ED56ED59C0F
:1009E800400E0001D46F420ED56F0F0ED66F000E69
:1009F800D76FCEC0B5F0CFC0B6F00001B76BB86BFB
:100A0800D4C0B9F0D5C0BAF0D6C0BBF0D7C0BCF0DE
:100A1800FFEC06F0B5C0C1F0B6C0C2F0B7C0C3F075
:100A2800B8C0C4F0E80E0001C56F030EC66F000E13
:100A3800C76F000EC86F5CEC05F0C1C0D4F0C2C02F
:100A4800D5F0C3C0D6F0C4C0D7F0D4C0D0F0D5C05C
:100A5800D1F0D6C0D2F0D7C0D3F00001D01FD11F3B
:100A6800D21FD31FD02B000ED123D223D323000EA5
:100A78000001D0250001D46F000E0001D121000132
:100A8800D56F010E0001D2210001D66F000E0001C2
:100A9800D3210001D76FD5C002F0D4C003F0D58EA2
:100AA80002C0D7FF03C0D6FFF294F28AF194120075
:100AB800000E0001C96F000ECA6F000ECB6F000E4A
:100AC800CC6F0001C5510001C6110001C71100011A
:100AD800C811D8B447D0010E0001CD6F09D000016C
:100AE800D890C537C637C737C8370001CD2B00D0D7
:100AF8000001C8BF02D0F3D700D00001D890C93791
:100B0800CA37CB37CC370001C5510001C15D0001A0
:100B1800C6510001C2590001C7510001C359000163
:100B2800C8510001C459D8A013D00001C551000113
:100B3800C15F0001C6510001C25B0001C75100013D
:100B4800C35B0001C8510001C45B0001C98100D02A
:100B58000001D890C833C733C633C5330001CD2F41
:100B6800CCD700D0C9C0C1F0CAC0C2F0CBC0C3F056
:100B7800CCC0C4F01200EACFAAF0E1CFABF0E2CFCC
:100B8800ACF0D9CFADF0DACFAEF0F3CFAFF0F4CF11
:100B9800B0F0F6CFB1F0F7CFB2F0F8CFB3F0F5CFB1
:100BA800B4F077BC779C77A02CD07790880E3C6EF9
:100BB800000E3D6E61EC04F0100E0001881921E171
:100BC80000018905D8A41DD000018C51D8A419D0E2
:100BD800080E00018E19D8A414D0000194A303D0E4
:100BE800000194B702D0198002D0199000D00001FA
:100BF80094A103D0000194B502D0198202D01992B1
:100C080000D0B4C0F5FFB3C0F8FFB2C0F7FFB1C061
:100C1800F6FFB0C0F4FFAFC0F3FFAEC0DAFFADC05F
:100C2800D9FFACC0E2FFABC0E1FFAAC0EAFFA9C090
:100C3800E9FFA8C0FBFFA7C0FAFF1100939A00D0F4
:100C4800939400D0938600D0800E6F6E00D06E38DB
:100C5800E832070B040AD8A4FAD7000E726E05D042
:100C6800130E07D002D00F0E04D0030E02D00AD004
:100C7800010E0E01436F900E0E01446F020E0E011D
:100C8800456F00D0000E0E01FA6F000E0E01FB6FCB
:100C98000E01F869E00E0E01F96F010E0E01466FA4
:100CA800000E0E01476F000E0E01E26F000E0E01DE
:100CB800E36F220E0E01E06F000E0E01E16F030ECE
:100CC8000F01206F200E606E000E6F6E00D06E3820
:100CD800E832070B0009D8B4FAD7000E776E768091
:100CE800788012000001B76F010E0001B76501D0CE
:100CF800FFD7F29EF29C0001B751060D020EF326B3
:100D0800000EF4221A0EF324D96E000EF420DA6EC7
:100D1800B5C0DEFFB6C0DDFF0001B751060D040EF9
:100D2800F326000EF4221A0EF324D96E000EF420D6
:100D3800DA6EB5C0DEFFB6C0DDFF0001B751060DA3
:100D4800010EF326000EF4221A0EF324D96E000EBB
:100D5800F420DA6E000EDF6E0001B751060D1A0E90
:100D6800F324D96E000EF420DA6E010EDF6EF28ED7
:100D7800F28C1200000E0001BB6F000EBA6F00016A
:100D8800B7510001B811D8B431D0010E0001B96FC4
:100D980007D00001D890B737B8370001B92B00D079
:100DA8000001B8BF02D0F5D700D00001D890BA37FB
:100DB800BB370001B7510001B55D0001B851000112
:100DC800B659D8A00BD00001B7510001B55F00019A
:100DD800B8510001B65B0001BA8100D00001D8907B
:100DE800B833B7330001B92FE0D700D0BAC0B5F097
:100DF800BBC0B6F01200000E0001BD6F000EBE6F42
:100E0800000EBF6F000EC06F00D00001B5A111D059
:100E18000001B9510001BD270001BA510001BE23EC
:100E28000001BB510001BF230001BC510001C023D8
:100E380000D00001D890B937BA37BB37BC370001AA
:100E4800D890B833B733B633B5330001B551000184
:100E5800B6110001B7110001B811D8A4D6D7BDC08A
:100E6800B5F0BEC0B6F0BFC0B7F0C0C0B8F0120051
:100E780020EE02F02650D9262750DA22DE50DE1066
:100E8800D8B4120020EE02F02650D9262750DA22D4
:100E9800DE06000EDD5ADE50DE10D8A4120020EE69
:100EA80001F02650D9262750DA22010EDF6E26C01F
:100EB800D9FF27C0DAFFDE04D8A4120020EE04F020
:100EC8002650D9262750DA2210EE02F02650E126C5
:100ED8002750E222DECFE6FFDDCFE5FF1200120049
:100EE800D08EF28EF28C0BEC09F0BFEC08F022ECFD
:100EF80006F0D2EC08F00EEC09F0000E0001CF6FFE
:100F0800010ECE6FF1EC04F0000EFFEC08F0010EBC
:100F18000001B56F000E57EC08F0010E0001B56F27
:100F2800010E57EC08F0000E0001B66F0A0EB56FFF
:100F3800010E76EC06F0000E0001B66F010EB56FDB
:100F4800000E76EC06F01200010EFFEC08F0000E21
:100F58000001B56F000E57EC08F0000E0001B56FE8
:100F6800010E57EC08F0000E086E000E076E000E1A
:100F78000A6E000E096E000E0C6E000E0B6E779C4A
:100F8800768C788C200E6F6E00D06E38E832070BA6
:100F9800E806D8A4FAD7D39E0300F00E00D0E82EB6
:100FA800FDD712000001B66F010E0001B66502D030
:100FB800000E12000001B651060D010EF326000EB8
:100FC800F4221A0EF324D96E000EF420DA6EDE0431
:100FD800D8A411D00001B651060D010EF326000E5B
:100FE800F4221A0EF324D96E000EF420DA6E000EE5
:100FF800DF6E010E1200000E120012004350191885
:10100800D8B415D0AA0E436E0B4A0C2ADD0E0B5C21
:10101800050E0C58D8A01200000E0C6E000E0B6EB8
:1010280019C043F0A8EC07F074EC07F01200A8EC24
:1010380007F074EC07F01200120000EE60F0470EA3
:10104800EE6AE806FDE100EE01F0250EEE6AE8061C
:10105800FDE11A0EF66E120EF76E000EF86E09001C
:10106800F5CF42F00900F5CF43F0000EF86E00010D
:10107800F3EF08F0000E0001BB6F000EBA6FC3CF8C
:10108800B7F0E00E0001B717C4500001B86F0001B7
:10109800B7510001BA6FB8C0BBF0BAC0B5F0BBC059
:1010A800B6F0120012000001B66F0001B551000140
:1010B800D8B408D00001B605D8A402D08A8C120092
:1010C8008A8E12000001B605D8A402D08A9C1200AC
:1010D8008A9E12001200000ED6EC07F00009D8A470
:1010E8006BEC03F0010ED6EC07F00009D8B412003F
:1010F8000650D8A412006DEC00F012001200000196
:10110800B56F0001B5510001D8A404D08B9200D06E
:101118008B9012000001B505D8A412008B9E00D058
:101128008B98120012000001B56F0001B551000143
:10113800D8A404D08B8200D08B9012000001B50592
:10114800D8A412008B9E00D08B88120012000001D8
:10115800B56F0001B5510001D8A404D08B9200D01E
:101168008B8012000001B505D8A412008B8E00D028
:101178008B9812001200939C00D0939E92680F0ED9
:101188000F015D6F000EC16EAA0EC06E000EC46E18
:10119800000EC36E010EE3EC08F012008B9200D033
:1011A8008B9000D08B9E00D08B9800D0949200D06A
:1011B800949000D0949E00D09498120012000001E0
:1011C800B66FB6C0B5F00001B547B547C2500001CB
:1011D800B519830BB519C26EC280C282120074ECB5
:1011E80007F0A8EC07F074EC07F000D06FEC08F0FB
:1011F800FDD76BEF00F00001B56F0001B55100019C
:10120800D8A402D08A9A12008A8A120012009B8CF3
:06121800120001AA120001
:020000040020DA
:08000000FFFFFFFFFFFFFFFF00
:020000040030CA
:0E00000011031920FF8990FF0FC00FE00F4081
:00000001FF
