:0400000071EF00F0AC
:10000800FACFB2F0FBCFB3F0E9CFB4F07FEF07F04F
:10001800D8CF2BF0E8CF2CF0E0CF2DF0FACF2EF090
:10002800FBCF2FF0E9CF30F0EACF31F0E1CF32F05B
:10003800E2CF33F0D9CF34F0DACF35F0F3CF36F062
:10004800F4CF37F0F6CF38F0F7CF39F0F8CF3AF0F1
:10005800F5CF3BF0F2A41ED0F29489C0D7FF8AC036
:10006800D6FF000E3C6E010E3C6401D00CD03C5013
:10007800060D1B0EF324276E000EF420286ECAEC22
:1000880009F03C2AF0D7012A090E016403D0000EBA
:10009800016E00D03BC0F5FF3AC0F8FF39C0F7FF4A
:1000A80038C0F6FF37C0F4FF36C0F3FF35C0DAFFBB
:1000B80034C0D9FF33C0E2FF32C0E1FF31C0EAFFEC
:1000C80030C0E9FF2FC0FBFF2EC0FAFF2DC0E0FFB4
:1000D8002CC0E8FF2BC0D8FF1000C4EF0AF01AB0FC
:1000E800A5D086D1A3D0075004E10B0E065CD8A09A
:1000F80099D1DA0E185C030E1958D8A093D1000EC6
:100108007DEC0BF0000E076E000E066E000E0B6EF7
:10011800000E0A6E000E076E000E066E070E71D0F6
:1001280081D1010E6ED05E0E065C010E0758D8B064
:1001380045D0000E91EC0BF0064A072A000E0B6E14
:10014800000E0A6E075004E1330E065CD8A06AD18F
:10015800DA0E185C030E1958D8A064D1075004E1D0
:10016800790E065CD8A00DD0000E7DEC0BF0000EC9
:10017800076E000E066E020E026E000EE8EC07F027
:1001880051D107500DE13C0E065CD8B009D0000EE5
:100198007DEC0BF0000E076E000E066E020E31D0DD
:1001A800000E7DEC0BF0000E076E000E066E040EBE
:1001B800026E000EA5EC0BF00CD134D1000E7DECD4
:1001C8000BF0000E076E000E066E080E1AD02AD12C
:1001D800064A072A075004E1330E065CD8A022D14C
:1001E800DA0E185C030E1958D8A01CD1000E7DEC4D
:1001F8000BF0000E076E000E066E040E02D012D130
:10020800CED0026E0FD15E0E065C010E0758D8B034
:1002180006D0000E91EC0BF0064A072ADAD0080E39
:10022800026E000E7DEC0BF0DED0FCD00250000A0E
:10023800D8B479D7010AD8B456D7020AD8B4AFD0FF
:10024800070AD8B4C5D7020AD8B46BD70F0AD8B4EE
:10025800DAD7E8D0CDD00C4A0D2A000E0D6E000E6C
:100268000C6E000E0B6E000E0A6E5BD7DBD00750CB
:1002780004E10B0E065CD8A0D5D0DA0E185C030E8C
:100288001958D8A0CFD0000E7DEC0BF0000E076EE9
:10029800000E066E000E0B6E000E0A6E000E076E44
:1002A800000E066E060EADD7BDD03CD05E0E065CC5
:1002B800010E0758D8B045D0000EA5EC0BF0064A41
:1002C800072A000E0B6E000E0A6E075004E1330E6B
:1002D800065CD8A0A7D0DA0E185C030E1958D8A06F
:1002E800A1D0075004E1790E065CD8A011D0000E09
:1002F8007DEC0BF0000E076E000E066E000E0B6E06
:10030800000E0A6E000E026E020EE8EC07F08AD0AC
:1003180007500AE13C0E065CD8B006D0000E7DEC12
:100328000BF043D0000E6DD7000E7DEC0BF0000EE5
:10033800076E000E066E050E026E000E91EC0BF0B5
:1003480071D0000E7DEC0BF0000E076E000E066EED
:10035800090E57D767D0064A072A075004E1330E1B
:10036800065CD8A05FD0DA0E185C030E1958D8A026
:1003780059D0000E7DEC0BF0000E076E000E066ED5
:10038800030E3FD74FD0000E0B6E000E0A6E0C4ABC
:100398000D2ADC0E0C5C050E0D58D8A043D0000EBB
:1003A8000D6E000E0C6EBDD63DD0000E076E000E11
:1003B800066EB8D75E0E065C010E0758D8B00ED090
:1003C800000EA5EC0BF0064A072A000E0B6E000E75
:1003D8000A6E000E0B6E000E0A6E24D0090E026E15
:1003E800000E7DEC0BF0000E076E000E066E1AD0A4
:1003F8000250000AD8B43BD7010AD8B457D7030A29
:10040800D8B429D7010AD8B4BED7070AD8B4CDD7EB
:10041800010AD8B4A0D7020AD8B484D70F0AD8B42E
:10042800C9D700D01AB2A5D086D1A3D0095004E10B
:100438000B0E085CD8A099D1DA0E165C030E17587B
:10044800D8A093D1010E7DEC0BF0000E096E000EC2
:10045800086E000E0B6E000E0A6E000E096E000E7E
:10046800086E070E71D081D1010E6ED05E0E085C49
:10047800010E0958D8B045D0010E91EC0BF0084A8E
:10048800092A000E0B6E000E0A6E095004E1330EA5
:10049800085CD8A06AD1DA0E165C030E1758D8A0EB
:1004A80064D1095004E1790E085CD8A00DD0010E82
:1004B8007DEC0BF0000E096E000E086E020E036E46
:1004C800040EE8EC07F051D109500DE13C0E085C30
:1004D800D8B009D0010E7DEC0BF0000E096E000EAD
:1004E800086E020E31D0010E7DEC0BF0000E096E85
:1004F800000E086E040E036E010EA5EC0BF00CD175
:1005080034D1010E7DEC0BF0000E096E000E086E62
:10051800080E1AD02AD1084A092A095004E1330ED4
:10052800085CD8A022D1DA0E165C030E1758D8A0A2
:100538001CD1010E7DEC0BF0000E096E000E086E4A
:10054800040E02D012D1CED0036E0FD15E0E085C1D
:10055800010E0958D8B006D0010E91EC0BF0084AEC
:10056800092ADAD0080E036E010E7DEC0BF0DED0FE
:10057800FCD00350000AD8B479D7010AD8B456D7AA
:10058800020AD8B4AFD0070AD8B4C5D7020AD8B47B
:100598006BD70F0AD8B4DAD7E8D0CDD00E4A0F2AD5
:1005A800000E0F6E000E0E6E000E0B6E000E0A6E21
:1005B8005BD7DBD0095004E10B0E085CD8A0D5D07E
:1005C800DA0E165C030E1758D8A0CFD0010E7DECBA
:1005D8000BF0000E096E000E086E000E0B6E000E7A
:1005E8000A6E000E096E000E086E060EADD7BDD05D
:1005F8003CD05E0E085C010E0958D8B045D0010EFB
:10060800A5EC0BF0084A092A000E0B6E000E0A6EC4
:10061800095004E1330E085CD8A0A7D0DA0E165CA6
:10062800030E1758D8A0A1D0095004E1790E085C30
:10063800D8A011D0010E7DEC0BF0000E096E000E53
:10064800086E000E0B6E000E0A6E000E036E060E8C
:10065800E8EC07F08AD009500AE13C0E085CD8B0F3
:1006680006D0010E7DEC0BF043D0000E6DD7010EC5
:100678007DEC0BF0000E096E000E086E050E036E81
:10068800010E91EC0BF071D0010E7DEC0BF0000E19
:10069800096E000E086E090E57D767D0084A092A56
:1006A800095004E1330E085CD8A05FD0DA0E165C5E
:1006B800030E1758D8A059D0010E7DEC0BF0000E90
:1006C800096E000E086E030E3FD74FD0000E0B6E5A
:1006D800000E0A6E0E4A0F2ADC0E0E5C050E0F582D
:1006E800D8A043D0000E0F6E000E0E6EBDD63DD0C2
:1006F800000E096E000E086EB8D75E0E085C010E7B
:100708000958D8B00ED0010EA5EC0BF0084A092AFA
:10071800000E0B6E000E0A6E000E0B6E000E0A6EB7
:1007280024D0090E036E010E7DEC0BF0000E096E4D
:10073800000E086E1AD00350000AD8B43BD7010A3D
:10074800D8B457D7030AD8B429D7010AD8B4BED722
:10075800070AD8B4CDD7010AD8B4A0D7020AD8B4AA
:1007680084D70F0AD8B4C9D700D00C500D10D8A41C
:1007780012000E500F10D8A4120006500710D8A46B
:10078800120010501110D8A41200E7EC0AF0120061
:1007980012000001E305D8A44ED020EC0BF00001B4
:1007A8008851080D020EF326000EF422600EF32481
:1007B800D96E000EF420DA6E0001C0C0DEFF000121
:1007C800C1C0DDFF000E0001C86F000EC76F000E2C
:1007D8000001C96F040E0001C96501D016D00001DF
:1007E800C951080D020EF326000EF422600EF32400
:1007F800D96E000EF420DA6EDE500001C727DD50F6
:100808000001C8230001C92BE5D7C7C0C0F0C8C084
:10081800C1F0000E0001C36F050EC26F4CEC09F069
:10082800C0C014F0C1C015F0020E0001E36F020E43
:10083800CAEC0BF01200020E0001E319D8A44ED046
:1008480020EC0BF000018851080D040EF326000E71
:10085800F422600EF324D96E000EF420DA6E000143
:10086800C0C0DEFF0001C1C0DDFF000E0001C86F7F
:10087800000EC76F000E0001C96F040E0001C965A4
:1008880001D016D00001C951080D040EF326000E40
:10089800F422600EF324D96E000EF420DA6EDE50D6
:1008A8000001C727DD500001C8230001C92BE5D787
:1008B800C7C0C0F0C8C0C1F0000E0001C36F050E6C
:1008C800C26F4CEC09F0C0C016F0C1C017F0030E9F
:1008D8000001E36F030ECAEC0BF01200030E0001D7
:1008E800E319D8A4120020EC0BF000018851080D80
:1008F800060EF326000EF422600EF324D96E000EC5
:10090800F420DA6E0001C0C0DEFF0001C1C0DDFFC7
:10091800000E0001C86F000EC76F000E0001C96FFE
:10092800040E0001C96501D016D00001C951080D97
:10093800060EF326000EF422600EF324D96E000E84
:10094800F420DA6EDE500001C727DD500001C8230D
:100958000001C92BE5D7C7C0C0F0C8C0C1F0000E60
:100968000001C36F050EC26F4CEC09F0C0C018F04F
:10097800C1C019F00001882B040E0001886503D05E
:10098800000E0001886F010E0001E36F010ECAEC32
:100998000BF012001200AA0E0001C46F000E000135
:1009A800C56F81B87FD0C4C0D9FFC5C0DAFF020EB9
:1009B800DF6007D0C4C0D9FFC5C0DAFF020EDF6E02
:1009C8001200C4C0D9FFC5C0DAFF040EDF6006D02C
:1009D800C4C0D9FFC5C0DAFFDF2A1200000120EE2B
:1009E80005F0C451D926C551DA22DF50D8A409D060
:1009F800000120EE05F0C451D926C551DA22010EB6
:100A0800DF6E000120EE03F0C451D926C551DA2269
:100A1800DE50DE10D8B41200000120EE03F0C451FD
:100A2800D926C551DA22000110EE01F0C451E126A1
:100A3800C551E222DE50E65CDE50E658D8B00BD055
:100A4800000120EE01F0C451D926C551DA22DE2A70
:100A5800000EDD221200000120EE06F0C451D92656
:100A6800C551DA22DF50D8B41200000120EE06F09A
:100A7800C451D926C551DA22000110EE07F0C4513D
:100A8800E126C551E222E72ADE50E65CD8A0120032
:100A9800000120EE07F0C451D926C551DA22000E14
:100AA800DF6E1200C4C0D9FFC5C0DAFF020EDF64D2
:100AB80007D0C4C0D9FFC5C0DAFF020EDF6E4ED022
:100AC800C4C0D9FFC5C0DAFFDF50D8B406D0C4C04F
:100AD800D9FFC5C0DAFFDF0641D0000120EE05F0DE
:100AE800C451D926C551DA22DE04D8A437D0000172
:100AF80020EE05F0C451D926C551DA22000EDF6E6A
:100B0800000120EE03F0C451D926C551DA220001B4
:100B180010EE01F0C451E126C551E222DE50E65C38
:100B2800DE50E658D8B00ED00550D8A405D0010E36
:100B3800056E1A801A8206D0000E056E1A901A9257
:100B480001D000D0000120EE01F0C451D926C551D2
:100B5800DA22000EDE6E000EDD6E00D0000120EEFF
:100B680007F0C451D926C551DA22000EDF6E1200F3
:100B780012000F012097000120EE04F0C051D92681
:100B8800C151DA22DF50D8A45AD0C0C0D9FFC1C0A1
:100B9800DAFFDECFC2F0DDCFC3F00001D890C33357
:100BA800C2330001D890C333C2330001D890C33395
:100BB800C2330001C2510F01216FC0C0D9FFC1C0AB
:100BC800DAFFDF500001C26F050E0001C36F00019C
:100BD800D890C2370001C32FFAD70001C251E00BE9
:100BE8000F01226F000120EE04F0C051D926C15137
:100BF800DA22DF500001C26F0001C247C247C24774
:100C08000F0122510001C219F70BC2190F01226FFF
:100C1800000120EE05F0C051D926C151DA22DF507B
:100C28000001C26F0001C23BC247C2470F012551F4
:100C38000001C219BF0BC2190F01256F00D00001B6
:100C480020EE06F0C051D926C151DA22DF500F013B
:100C5800256F000120EE07F0C051D926C151DA22D4
:100C6800DF500F01266F000120EE08F0C051D92691
:100C7800C151DA22DF500F01276F000120EE09F081
:100C8800C051D926C151DA22DF500F01286F000167
:100C980020EE0AF0C051D926C151DA22DF500F01E7
:100CA800296F000120EE0BF0C051D926C151DA227C
:100CB800DF500F012A6F000120EE0CF0C051D92639
:100CC800C151DA22DF500F012B6F000120EE0DF029
:100CD800C051D926C151DA22DF500F012C6F000113
:100CE80020EE0EF0C051D926C151DA22DF500F0193
:100CF8002D6F0F01208700D00F0120B7FDD71200FC
:100D080060AE120020EE04F03D50D9263E50DA22A3
:100D180062A602D0010E01D0000EDF6E20EE04F0B4
:100D28003D50D9263E50DA22DF50D8A421D062CFD8
:100D38003FF0050E406ED8903F32402EFCD73F5012
:100D480061CF41F0426AD89041364236D890413658
:100D58004236D890413642364112000E42123DC00A
:100D6800D9FF3EC0DAFF41C0DEFF42C0DDFF00D040
:100D780020EE05F03D50D9263E50DA2265AC02D06F
:100D8800010E01D0000EDF6E20EE06F03D50D92690
:100D98003E50DA2265500F0BDF6E20EE07F03D5013
:100DA800D9263E50DA2266CFDFFF20EE08F03D500C
:100DB800D9263E50DA2267CFDFFF20EE09F03D50FA
:100DC800D9263E50DA2268CFDFFF20EE0AF03D50E8
:100DD800D9263E50DA2269CFDFFF20EE0BF03D50D6
:100DE800D9263E50DA226ACFDFFF20EE0CF03D50C4
:100DF800D9263E50DA226BCFDFFF20EE0DF03D50B2
:100E0800D9263E50DA226CCFDFFF20EE0EF03D509F
:100E1800D9263E50DA226DCFDFFF609E1200120005
:100E2800020ED56ED59C400E0001DF6F420EE06FBA
:100E38000F0EE16F000EE26FD9C0C0F0DAC0C1F04A
:100E48000001C26BC36BDFC0C4F0E0C0C5F0E1C0F5
:100E5800C6F0E2C0C7F08DEC09F0C0C0CCF0C1C04C
:100E6800CDF0C2C0CEF0C3C0CFF0E80E0001D06F05
:100E7800030ED16F000ED26F000ED36F4DEC08F049
:100E8800CCC0DFF0CDC0E0F0CEC0E1F0CFC0E2F0E2
:100E9800DFC0DBF0E0C0DCF0E1C0DDF0E2C0DEF096
:100EA8000001DB1FDC1FDD1FDE1FDB2B000EDC2338
:100EB800DD23DE23000E0001DB250001DF6F000EBD
:100EC8000001DC210001E06F010E0001DD210001BD
:100ED800E16F000E0001DE210001E26FE0C089F041
:100EE800DFC08AF0D58E89C0D7FF8AC0D6FFF294BA
:100EF800F28AF1941200EACFB5F0E1CFB6F0E2CF72
:100F0800B7F0D9CFB8F0DACFB9F0F3CFBAF0F4CF61
:100F1800BBF0F6CFBCF0F7CFBDF0F8CFBEF0F5CF01
:100F2800BFF0F2A004D081CF43F000F0F29077BC7C
:100F3800779C77A02CD077908B0E3D6E000E3E6E7E
:100F480084EC06F0100E00018B1921E100018C05DC
:100F5800D8A41DD000018F51D8A419D0080E0001C3
:100F68009119D8A414D0000197A303D0000197B712
:100F780002D01A8002D01A9000D0000197A103D0A5
:100F8800000197B502D01A8202D01A9200D0BFC0D1
:100F9800F5FFBEC0F8FFBDC0F7FFBCC0F6FFBBC081
:100FA800F4FFBAC0F3FFB9C0DAFFB8C0D9FFB7C0C1
:100FB800E2FFB6C0E1FFB5C0EAFFB4C0E9FFB3C0C5
:100FC800FBFFB2C0FAFF11000001C46F010E00015F
:100FD8009C6F100E9B6F000E0001A06F000E0001A9
:100FE8009F6F030E0001A16F0001C4510001D8A436
:100FF80005D0010E0001A26F010E21D00001C40529
:10100800D8A405D0010E0001A26F010E33D0020E44
:101018000001C419D8A405D0010E0001A26F020E68
:101028000ED0030E0001C419D8A402D0010E1FD09F
:10103800040E0001C419D8A406D0020EDBD70001A3
:10104800A36F000E1AD0050E0001C419D8A402D04F
:10105800020ED9D7060E0001C419D8A402D0020E78
:10106800DCD7070E0001C419D8A40AD0020E00016B
:10107800A26F020E0001A36F010E0001A46F00D041
:101088009B0E0001C06F000E0001C16FBDEC05F0A2
:101098001200000E0001D46F000ED56F000ED66F3F
:1010A800000ED76F0001D0510001D1110001D211FB
:1010B8000001D311D8B447D0010E0001D86F09D070
:1010C8000001D890D037D137D237D3370001D82B89
:1010D80000D00001D3BF02D0F3D700D00001D890D0
:1010E800D437D537D637D7370001D0510001CC5D7A
:1010F8000001D1510001CD590001D2510001CE5952
:101108000001D3510001CF59D8A013D00001D0510C
:101118000001CC5F0001D1510001CD5B0001D2512B
:101128000001CE5B0001D3510001CF5B0001D481E7
:1011380000D00001D890D333D233D133D03300015B
:10114800D82FCCD700D0D4C0CCF0D5C0CDF0D6C0E5
:10115800CEF0D7C0CFF01200939A00D0939400D06D
:10116800938600D0800E6F6E00D06E38E832070B81
:10117800040AD8A4FAD7000E726E05D0130E07D051
:1011880002D00F0E04D0030E02D00AD0010E0E01B9
:10119800436F900E0E01446F020E0E01456F00D092
:1011A800000E0E01FA6F000E0E01FB6F0E01F869BA
:1011B800E00E0E01F96F010E0E01466F000E0E01D2
:1011C800476F000E0E01E26F000E0E01E36F220E54
:1011D8000E01E06F000E0E01E16F030E0F01206F8C
:1011E800200E606E000E6F6E00D06E38E832070B6E
:1011F8000009D8B4FAD7000E776E7680788012008E
:101208000001C26F010E0001C26501D0FFD7F29E36
:10121800F29C0001C251060D020EF326000EF422C4
:101228001B0EF324D96E000EF420DA6EC0C0DEFF68
:10123800C1C0DDFF0001C251060D040EF326000EE9
:10124800F4221B0EF324D96E000EF420DA6EC0C00F
:10125800DEFFC1C0DDFF0001C251060D010EF326FD
:10126800000EF4221B0EF324D96E000EF420DA6E61
:10127800000EDF6E0001C251060D1B0EF324D96E5D
:10128800000EF420DA6E010EDF6EF28EF28C120080
:10129800000E0001C66F000EC56F0001C2510001AB
:1012A800C311D8B431D0010E0001C46F07D00001BA
:1012B800D890C237C3370001C42B00D00001C3BF88
:1012C80002D0F5D700D00001D890C537C637000145
:1012D800C2510001C05D0001C3510001C159D8A02D
:1012E8000BD00001C2510001C05F0001C3510001D1
:1012F800C15B0001C58100D00001D890C333C2335F
:101308000001C42FE0D700D0C5C0C0F0C6C0C1F0EE
:101318001200000E0001C86F000EC96F000ECA6FE0
:10132800000ECB6F00D00001C0A111D00001C45144
:101338000001C8270001C5510001C9230001C65199
:101348000001CA230001C7510001CB2300D00001CE
:10135800D890C437C537C637C7370001D890C333CC
:10136800C233C133C0330001C0510001C1110001B3
:10137800C2110001C311D8A4D6D7C8C0C0F0C9C0D3
:10138800C1F0CAC0C2F0CBC0C3F0120020EE02F018
:101398002750D9262850DA22DE50DE10D8B41200A1
:1013A80020EE02F02750D9262850DA22DE06000E59
:1013B800DD5ADE50DE10D8A4120020EE01F02750CE
:1013C800D9262850DA22010EDF6E27C0D9FF28C09F
:1013D800DAFFDE04D8A4120020EE04F02750D92644
:1013E8002850DA2210EE02F02750E1262850E22297
:1013F800DECFE6FFDDCFE5FF12001200CFEC04F0F0
:101408000504D8A429D0104A112ADD0E105C050E57
:101418001158D8A01200000E116E000E106E020EA8
:101428000218D8A407D0020E0318D8A403D01A9023
:101438001A9212000250D8A406D0020E0318D8A49B
:1014480002D01A921200020E0218D8A412000350F9
:10145800D8A412001A901200000E116E000E106E21
:1014680012001200D08EF28EF28CF2EC0BF067ECC8
:101478000BF0B0EC08F0B9EC0BF006EC0BF0000E3A
:101488000001DA6F010ED96F14EC07F0000EE6ECDC
:101498000BF0010E0001C06F000E39EC0BF0010ECD
:1014A8000001C06F010E39EC0BF0000E0001C16F96
:1014B8000A0EC06F010E04EC09F0000E0001C16FA6
:1014C800010EC06F000E04EC09F01200010EE6ECEC
:1014D8000BF0000E0001C06F000E39EC0BF0000E8F
:1014E8000001C06F010E39EC0BF0000E076E000E04
:1014F800066E000E096E000E086E000E0B6E000ED2
:101508000A6E779C768C788C200E6F6E00D06E38C1
:10151800E832070BE806D8A4FAD7D39E0300F00EEA
:1015280000D0E82EFDD712000001C16F010E0001A6
:10153800C16502D0000E12000001C151060D010E56
:10154800F326000EF4221B0EF324D96E000EF420AD
:10155800DA6EDE04D8A411D00001C151060D010EC7
:10156800F326000EF4221B0EF324D96E000EF4208D
:10157800DA6E000EDF6E010E1200000E120012006D
:1015880000EE60F0520EEE6AE806FDE100EE01F0B2
:10159800260EEE6AE806FDE1E90EF66E170EF76E06
:1015A800000EF86E0900F5CFE3F0E80EF66E170EA0
:1015B800F76E000EF86E0900F5CF44F0000EF86ED5
:1015C8000001DAEF0BF044501A18D8B415D0AA0E5F
:1015D800446E0A4A0B2ADD0E0A5C050E0B58D8A089
:1015E8001200000E0B6E000E0A6E1AC044F06AEC70
:1015F8000AF036EC0AF012006AEC0AF036EC0AF04F
:10160800120012000F015C9393880F015A89F2901F
:10161800F286F180000E0001AE6F640EAD6F010E10
:101628000001AA6F000E0001AF6F000E0001B06F3D
:10163800000E0001B16F1200000E0001C66F000E0F
:10164800C56FC3CFC2F0E00E0001C217C45000013D
:10165800C36F0001C2510001C56FC3C0C6F0C5C049
:10166800C0F0C6C0C1F0120012000001C16F000135
:10167800C0510001D8B408D00001C105D8A402D0D7
:101688008A8C12008A8E12000001C105D8A402D0EB
:101698008A9C12008A9E12001200000E98EC0AF032
:1016A8000009D8A4CDEC03F0010E98EC0AF000096B
:1016B800D8B412000450D8A4120002EC0AF073EC5B
:1016C80000F012001200939C00D0939E92809282A8
:1016D800928492860F0E0F015D6F000EC16EAA0EE6
:1016E800C06E000EC46E000EC36E010ECAEC0BF085
:1016F80012000001C06F0001C0510001D8A404D03D
:101708008B9200D08B9012000001C005D8A4120063
:101718008B9E00D08B98120012000001C06F000150
:10172800C0510001D8A404D08B8200D08B90120045
:101738000001C005D8A412008B9E00D08B8812002F
:1017480012000001C06F0001C0510001D8A404D0EC
:101758008B9200D08B8012000001C005D8A4120023
:101768008B8E00D08B98120012008B9200D08B9039
:1017780000D08B9E00D08B9800D0949200D094908B
:1017880000D0949E00D09498120012000001C16FFE
:10179800C1C0C0F00001C047C047C2500001C01915
:1017A800830BC019C26EC280C282120036EC0AF0E6
:1017B8006AEC0AF036EC0AF000D051EC0BF0FDD7D9
:1017C80071EF00F00001C06F0001C0510001D8A402
:1017D80002D08A9A12008A8A120012009B8C120088
:0217E800AA0154
:020000040020DA
:08000000FFFFFFFFFFFFFFFF00
:020000040030CA
:0E00000011031920FF8990FF0FC00FE00F4081
:00000001FF
